{
  "contractName": "Adoption",
  "abi": [
    {
      "constant": true,
      "inputs": [
        {
          "name": "",
          "type": "uint256"
        }
      ],
      "name": "adopters",
      "outputs": [
        {
          "name": "",
          "type": "address"
        }
      ],
      "payable": false,
      "stateMutability": "view",
      "type": "function"
    },
    {
      "constant": true,
      "inputs": [
        {
          "name": "",
          "type": "uint256"
        }
      ],
      "name": "sellers",
      "outputs": [
        {
          "name": "",
          "type": "address"
        }
      ],
      "payable": false,
      "stateMutability": "view",
      "type": "function"
    },
    {
      "constant": false,
      "inputs": [
        {
          "name": "petId",
          "type": "uint256"
        }
      ],
      "name": "adopt",
      "outputs": [
        {
          "name": "",
          "type": "uint256"
        }
      ],
      "payable": false,
      "stateMutability": "nonpayable",
      "type": "function"
    },
    {
      "constant": false,
      "inputs": [
        {
          "name": "id",
          "type": "uint256"
        }
      ],
      "name": "onShelf",
      "outputs": [
        {
          "name": "",
          "type": "uint256"
        }
      ],
      "payable": false,
      "stateMutability": "nonpayable",
      "type": "function"
    },
    {
      "constant": false,
      "inputs": [],
      "name": "getAdopters",
      "outputs": [
        {
          "name": "",
          "type": "address[16]"
        }
      ],
      "payable": false,
      "stateMutability": "nonpayable",
      "type": "function"
    },
    {
      "constant": false,
      "inputs": [],
      "name": "getSeller",
      "outputs": [
        {
          "name": "",
          "type": "address[16]"
        }
      ],
      "payable": false,
      "stateMutability": "nonpayable",
      "type": "function"
    },
    {
      "constant": false,
      "inputs": [
        {
          "name": "seller",
          "type": "address"
        }
      ],
      "name": "buy",
      "outputs": [],
      "payable": true,
      "stateMutability": "payable",
      "type": "function"
    }
  ],
  "bytecode": "0x608060405234801561001057600080fd5b5061061e806100206000396000f300608060405260043610610083576000357c0100000000000000000000000000000000000000000000000000000000900463ffffffff1680633de4eb171461008857806343ae80d3146100db5780638588b2c514610148578063c5087a6b14610189578063cee26ed5146101ca578063dbd0e1b614610237578063f088d5471461028a575b600080fd5b34801561009457600080fd5b5061009d6102c0565b6040518082601060200280838360005b838110156100c85780820151818401526020810190506100ad565b5050505090500191505060405180910390f35b3480156100e757600080fd5b5061010660048036038101908080359060200190929190505050610341565b604051808273ffffffffffffffffffffffffffffffffffffffff1673ffffffffffffffffffffffffffffffffffffffff16815260200191505060405180910390f35b34801561015457600080fd5b5061017360048036038101908080359060200190929190505050610376565b6040518082815260200191505060405180910390f35b34801561019557600080fd5b506101b4600480360381019080803590602001909291905050506103eb565b6040518082815260200191505060405180910390f35b3480156101d657600080fd5b506101f5600480360381019080803590602001909291905050506104c9565b604051808273ffffffffffffffffffffffffffffffffffffffff1673ffffffffffffffffffffffffffffffffffffffff16815260200191505060405180910390f35b34801561024357600080fd5b5061024c6104fe565b6040518082601060200280838360005b8381101561027757808201518184015260208101905061025c565b5050505090500191505060405180910390f35b6102be600480360381019080803573ffffffffffffffffffffffffffffffffffffffff16906020019092919050505061057e565b005b6102c86105ce565b6000601080602002604051908101604052809291908260108015610337576020028201915b8160009054906101000a900473ffffffffffffffffffffffffffffffffffffffff1673ffffffffffffffffffffffffffffffffffffffff16815260200190600101908083116102ed575b5050505050905090565b60008160108110151561035057fe5b016000915054906101000a900473ffffffffffffffffffffffffffffffffffffffff1681565b60008082101580156103895750600f8211155b151561039457600080fd5b336000836010811015156103a457fe5b0160006101000a81548173ffffffffffffffffffffffffffffffffffffffff021916908373ffffffffffffffffffffffffffffffffffffffff160217905550819050919050565b60008082101580156103fe5750600f8211155b1515610472576040517f08c379a000000000000000000000000000000000000000000000000000000000815260040180806020018281038252600f8152602001807f4964206f7574206f662072616e6765000000000000000000000000000000000081525060200191505060405180910390fd5b3360108360108110151561048257fe5b0160006101000a81548173ffffffffffffffffffffffffffffffffffffffff021916908373ffffffffffffffffffffffffffffffffffffffff160217905550819050919050565b6010816010811015156104d857fe5b016000915054906101000a900473ffffffffffffffffffffffffffffffffffffffff1681565b6105066105ce565b60108080602002604051908101604052809291908260108015610574576020028201915b8160009054906101000a900473ffffffffffffffffffffffffffffffffffffffff1673ffffffffffffffffffffffffffffffffffffffff168152602001906001019080831161052a575b5050505050905090565b60003490508173ffffffffffffffffffffffffffffffffffffffff166108fc829081150290604051600060405180830381858888f193505050501580156105c9573d6000803e3d6000fd5b505050565b610200604051908101604052806010906020820280388339808201915050905050905600a165627a7a723058200d4c1bcde6871fb9596b44b9fcda1bb1509fea7ed17419a691cd24ade180c3da0029",
  "source": "pragma solidity ^0.4.4;\r\n\r\ncontract Adoption {\r\n\taddress[16] public adopters;\r\n\taddress[16] public sellers;\r\n\r\n\t// Adopting a pet\r\n\tfunction adopt(uint petId) public returns (uint) {\r\n\t\trequire(petId >= 0 && petId <= 15);\r\n\r\n\t\tadopters[petId] = msg.sender;\r\n\r\n\t\treturn petId;\r\n\t}\r\n\r\n\tfunction onShelf(uint id) public returns (uint) {\r\n\t\t\trequire(id >= 0 && id <= 15,\"Id out of range\");\r\n\t\t\tsellers[id] = msg.sender;\r\n\t\t\treturn id;\r\n\t}\r\n\r\n\t// Retrieving the adopters\r\n\tfunction getAdopters() public returns (address[16]) {\r\n  \treturn adopters;\r\n\t}\r\n\r\n\tfunction getSeller() public returns (address[16]) {\r\n\t\treturn sellers;\r\n\t}\r\n\r\n\tfunction buy(address seller) public payable {\r\n        uint highestBid = msg.value;\r\n        seller.transfer(highestBid);\r\n    }\r\n}\r\n",
  "sourcePath": "F:\\FinalMarket\\contracts\\Adoption.sol",
  "compiler": {
    "name": "solc",
    "version": "0.4.24+commit.e67f0147.Emscripten.clang"
  },
  "schemaVersion": "2.0.1",
  "updatedAt": "2018-12-28T13:13:34.014Z"
}